:100000000C9435000C945D000C945D000C945D0024
:100010000C945D000C945D000C945D000C945D00EC
:100020000C945D000C945D000C945D000C945D00DC
:100030000C945D000C945D000C945D000C945D00CC
:100040000C9479010C945D000C94E9010C94C301AB
:100050000C945D000C945D000C945D000C945D00AC
:100060000C945D000C945D00A80211241FBECFEF1C
:10007000D8E0DEBFCDBF11E0A0E0B1E0EAEBF5E0F3
:1000800002C005900D92AE34B107D9F721E0AEE47D
:10009000B1E001C01D92A43FB207E1F710E0C5E353
:1000A000D0E004C02197FE010E94D502C433D107DD
:1000B000C9F70E941B020C94DB020C940000AF9263
:1000C000BF92CF92DF92EF92FF920F931F93CF9345
:1000D000DF936C017B018B01040F151FEB015E01A7
:1000E000AE18BF08C017D10759F06991D601ED913C
:1000F000FC910190F081E02DC6010995892B79F7DB
:10010000C501DF91CF911F910F91FF90EF90DF908C
:10011000CF90BF90AF900895FC01538D448D252F53
:1001200030E0842F90E0821B930B541710F0CF9691
:10013000089501970895FC01918D828D981761F0C3
:10014000A28DAE0FBF2FB11D5D968C91928D9F5FDA
:100150009F73928F90E008958FEF9FEF0895FC01B9
:10016000918D828D981731F0828DE80FF11D858D6C
:1001700090E008958FEF9FEF0895FC01918D228DFF
:10018000892F90E0805C9F4F821B91098F73992784
:10019000089587E591E00E94BD0021E0892B09F4D4
:1001A00020E0822F089580E090E0892B29F00E94C2
:1001B000C90081110C9400000895FC01A48DA80FC2
:1001C000B92FB11DA35ABF4F2C91848D90E0019699
:1001D0008F739927848FA689B7892C93A089B189B9
:1001E0008C91837080648C93938D848D981306C05A
:1001F0000288F389E02D80818F7D80830895EF92BE
:10020000FF920F931F93CF93DF93EC0181E0888FD0
:100210009B8D8C8D98131AC0E889F989808185FFA0
:1002200015C09FB7F894EE89FF896083E889F98942
:1002300080818370806480839FBF81E090E0DF9144
:10024000CF911F910F91FF90EF900895F62E0B8D97
:1002500010E00F5F1F4F0F731127E02E8C8D8E1152
:100260000CC00FB607FCFACFE889F989808185FFB9
:10027000F5CFCE010E94DD00F1CFEB8DEC0FFD2F0D
:10028000F11DE35AFF4FF0829FB7F8940B8FEA8974
:10029000FB8980818062CFCFCF93DF93EC01888D83
:1002A0008823B9F0AA89BB89E889F9898C9185FDF1
:1002B00003C0808186FD0DC00FB607FCF7CF8C917F
:1002C00085FFF2CF808185FFEDCFCE010E94DD005A
:1002D000E9CFDF91CF910895FC0101900020E9F76B
:1002E0003197AF01481B590BBC0187E591E00C9495
:1002F0005F001F920F920FB60F9211242F933F931E
:100300008F939F93AF93BF9380915301909154012A
:10031000A0915501B09156013091520123E0230F75
:100320002D3758F50196A11DB11D209352018093E0
:10033000530190935401A0935501B09356018091BD
:100340004E0190914F01A0915001B0915101019641
:10035000A11DB11D80934E0190934F01A0935001B8
:10036000B0935101BF91AF919F918F913F912F9188
:100370000F900FBE0F901F90189526E8230F02963E
:10038000A11DB11DD2CF1F920F920FB60F92112453
:100390002F933F934F935F936F937F938F939F938D
:1003A000AF93BF93EF93FF9387E591E00E94DD0049
:1003B000FF91EF91BF91AF919F918F917F916F913D
:1003C0005F914F913F912F910F900FBE0F901F9013
:1003D00018951F920F920FB60F9211242F938F939F
:1003E0009F93EF93FF93E0916701F0916801808103
:1003F000E0916D01F0916E0182FD1BC090818091B2
:1004000070018F5F8F7320917101821741F0E0912D
:100410007001F0E0E95AFE4F958F80937001FF91D3
:10042000EF919F918F912F910F900FBE0F901F9082
:1004300018958081F4CF789484B5826084BD84B5AA
:10044000816084BD85B5826085BD85B5816085BDCF
:10045000EEE6F0E0808181608083E1E8F0E01082E8
:10046000808182608083808181608083E0E8F0E029
:10047000808181608083E1EBF0E080818460808313
:10048000E0EBF0E0808181608083EAE7F0E080814A
:1004900084608083808182608083808181608083AA
:1004A0008081806880831092C100C7E5D1E0E8892F
:1004B000F98982E08083EC85FD851082EE85FF85D9
:1004C0008FEC8083188EEC89FD8986E08083EA8931
:1004D000FB89808180618083EA89FB8980818860D3
:1004E0008083EA89FB89808180688083EA89FB892F
:1004F00080818F7D808382E191E00E946C0182E3A4
:1005000091E00E946C0185E391E00E946C0182E31E
:1005100091E00E946C01CE010E944C01EA89FB89A6
:1005200080818F7E8083EA89FB898081877F8083B9
:10053000EA89FB8980818F778083EA89FB898081C2
:100540008F7D80838A8D898F90E080E00E94DB021E
:10055000E7E5F1E01382128288EE93E0A0E0B0E0DC
:1005600084839583A683B78384E091E0918380831D
:1005700085EC90E09587848784EC90E09787868768
:1005800080EC90E0918B808B81EC90E0938B828B60
:1005900082EC90E0958B848B86EC90E0978B868B39
:1005A000118E128E138E148E0895EE0FFF1F05907C
:0A05B000F491E02D0994F894FFCFB8
:1005BA0000000000FF005F008C004C01BD009B00A2
:1005CA00AF0052756E6E696E672041726475696E0E
:1005DA006F20546573742050726F6772616D2E2E8E
:1005EA002E000D0A00546869732041726475696EA1
:0E05FA006F20497320576F726B696E67210086
:00000001FF
